{
  "contractName": "Invest",
  "abi": [
    {
      "constant": true,
      "inputs": [],
      "name": "investor",
      "outputs": [
        {
          "name": "",
          "type": "address"
        }
      ],
      "payable": false,
      "stateMutability": "view",
      "type": "function"
    },
    {
      "constant": true,
      "inputs": [],
      "name": "value",
      "outputs": [
        {
          "name": "",
          "type": "uint256"
        }
      ],
      "payable": false,
      "stateMutability": "view",
      "type": "function"
    },
    {
      "constant": true,
      "inputs": [],
      "name": "manager",
      "outputs": [
        {
          "name": "",
          "type": "address"
        }
      ],
      "payable": false,
      "stateMutability": "view",
      "type": "function"
    },
    {
      "constant": true,
      "inputs": [],
      "name": "state",
      "outputs": [
        {
          "name": "",
          "type": "uint8"
        }
      ],
      "payable": false,
      "stateMutability": "view",
      "type": "function"
    },
    {
      "inputs": [],
      "payable": true,
      "stateMutability": "payable",
      "type": "constructor"
    },
    {
      "constant": false,
      "inputs": [],
      "name": "abort",
      "outputs": [],
      "payable": false,
      "stateMutability": "nonpayable",
      "type": "function"
    },
    {
      "constant": false,
      "inputs": [],
      "name": "confirmInvestment",
      "outputs": [],
      "payable": true,
      "stateMutability": "payable",
      "type": "function"
    },
    {
      "constant": false,
      "inputs": [],
      "name": "confirmReceived",
      "outputs": [],
      "payable": false,
      "stateMutability": "nonpayable",
      "type": "function"
    }
  ],
  "bytecode": "0x606060405233600160006101000a81548173ffffffffffffffffffffffffffffffffffffffff021916908373ffffffffffffffffffffffffffffffffffffffff16021790555060023481151561005157fe5b046000819055503460005460020214151561006b57600080fd5b6105aa8061007a6000396000f300606060405260043610610083576000357c0100000000000000000000000000000000000000000000000000000000900463ffffffff1680631e0018d61461008857806335a063b4146100dd5780633fa4f245146100f2578063481c6a751461011b5780635e1d41061461017057806373fac6f01461017a578063c19d93fb1461018f575b600080fd5b341561009357600080fd5b61009b6101c6565b604051808273ffffffffffffffffffffffffffffffffffffffff1673ffffffffffffffffffffffffffffffffffffffff16815260200191505060405180910390f35b34156100e857600080fd5b6100f06101ec565b005b34156100fd57600080fd5b61010561031d565b6040518082815260200191505060405180910390f35b341561012657600080fd5b61012e610323565b604051808273ffffffffffffffffffffffffffffffffffffffff1673ffffffffffffffffffffffffffffffffffffffff16815260200191505060405180910390f35b610178610349565b005b341561018557600080fd5b61018d6103fa565b005b341561019a57600080fd5b6101a261056b565b604051808260038111156101b257fe5b60ff16815260200191505060405180910390f35b600160009054906101000a900473ffffffffffffffffffffffffffffffffffffffff1681565b600260009054906101000a900473ffffffffffffffffffffffffffffffffffffffff1673ffffffffffffffffffffffffffffffffffffffff163373ffffffffffffffffffffffffffffffffffffffff1614151561024857600080fd5b600380600381111561025657fe5b600260149054906101000a900460ff16600381111561027157fe5b14151561027d57600080fd5b6003600260146101000a81548160ff0219169083600381111561029c57fe5b0217905550600260009054906101000a900473ffffffffffffffffffffffffffffffffffffffff1673ffffffffffffffffffffffffffffffffffffffff166108fc3073ffffffffffffffffffffffffffffffffffffffff16319081150290604051600060405180830381858888f19350505050151561031a57600080fd5b50565b60005481565b600260009054906101000a900473ffffffffffffffffffffffffffffffffffffffff1681565b600280600381111561035757fe5b600260149054906101000a900460ff16600381111561037257fe5b14151561037e57600080fd5b600054600202341480151561039257600080fd5b33600160006101000a81548173ffffffffffffffffffffffffffffffffffffffff021916908373ffffffffffffffffffffffffffffffffffffffff16021790555060028060146101000a81548160ff021916908360038111156103f157fe5b02179055505050565b600160009054906101000a900473ffffffffffffffffffffffffffffffffffffffff1673ffffffffffffffffffffffffffffffffffffffff163373ffffffffffffffffffffffffffffffffffffffff1614151561045657600080fd5b600280600381111561046457fe5b600260149054906101000a900460ff16600381111561047f57fe5b14151561048b57600080fd5b600160009054906101000a900473ffffffffffffffffffffffffffffffffffffffff1673ffffffffffffffffffffffffffffffffffffffff166108fc6000549081150290604051600060405180830381858888f1935050505015156104ef57600080fd5b600260009054906101000a900473ffffffffffffffffffffffffffffffffffffffff1673ffffffffffffffffffffffffffffffffffffffff166108fc3073ffffffffffffffffffffffffffffffffffffffff16319081150290604051600060405180830381858888f19350505050151561056857600080fd5b50565b600260149054906101000a900460ff16815600a165627a7a72305820a404970f69bb76e02c1ce183cbf51b0fdec30b1c15a7f2578041fd73f3a9430c0029",
  "source": "pragma solidity ^0.4.2; // should actually be 0.4.21\n\ncontract Invest {\n    uint public value;\n    // el inversor\n    address public investor;\n    // el gestor de la cuenta\n    address public manager;\n    enum State { PurchaseRequested, InProgress, PurchaseConfirmed, Cancelled }\n    State public state;\n\n    // Ensure that `msg.value` is an even number.\n    // Division will truncate if it is an odd number.\n    // Check via multiplication that it wasn't an odd number.\n    function Invest() public payable {\n        investor = msg.sender;\n        value = msg.value / 2;\n        require((2 * value) == msg.value);\n    }\n\n    modifier condition(bool _condition) {\n        require(_condition);\n        _;\n    }\n\n    modifier onlyBuyer() {\n        require(msg.sender == investor);\n        _;\n    }\n\n    modifier onlySeller() {\n        require(msg.sender == manager);\n        _;\n    }\n\n    modifier inState(State _state) {\n        require(state == _state);\n        _;\n    }\n\n  //  event Aborted();\n  //  event InvestmentConfirmed();\n  //  event ItemReceived();\n\n    /// Abort the purchase and reclaim the ether.\n    /// Can only be called by the seller before\n    /// the contract is locked.\n    function abort()\n        public\n        onlySeller\n        inState(State.Cancelled)\n    {\n      //  emit Aborted();\n        state = State.Cancelled;\n        manager.transfer(this.balance);\n    }\n\n    /// Confirm the purchase as buyer.\n    /// Transaction has to include `2 * value` ether.\n    /// The ether will be locked until confirmReceived\n    /// is called.\n    function confirmInvestment()\n        public\n        inState(State.PurchaseConfirmed)\n        condition(msg.value == (2 * value))\n        payable\n    {\n      //  emit InvestmentConfirmed();\n        investor = msg.sender;\n        state = State.PurchaseConfirmed;\n    }\n\n    /// Confirm that you (the buyer) received the item.\n    /// This will release the locked ether.\n    function confirmReceived()\n        public\n        onlyBuyer\n        inState(State.PurchaseConfirmed)\n    {\n      //  emit PurchaseConfirmed();\n        // It is important to change the state first because\n        // otherwise, the contracts called using `send` below\n        // can call in again here.\n        // state = State.Inactive;\n\n        // NOTE: This actually allows both the buyer and the seller to\n        // block the refund - the withdraw pattern should be used.\n\n        investor.transfer(value);\n        manager.transfer(this.balance);\n    }\n}\n",
  "sourcePath": "/home/andres/ethereum/blockinvest/contracts/BlockInvest.sol",
  "compiler": {
    "name": "solc",
    "version": "0.4.19+commit.c4cbbb05.Emscripten.clang"
  },
  "schemaVersion": "2.0.0",
  "updatedAt": "2018-03-03T15:33:39.148Z"
}